:020000040800F2
:10000000F8040020D5000008791C0008A31A000895
:1000100000000000000000000000000000000000E0
:10002000000000000000000000000000191D000892
:1000300000000000000000007B1C00081B1D0008E1
:10004000E7000008E7000008E7000008E7000008F4
:10005000E7000008E7000008E70000086101000869
:10006000E7000008E7000008E7000008E7000008D4
:10007000E7000008E7000008E7000008E7000008C4
:10008000E70000080000000000000000E700000892
:1000900000000000E7000008E7000008E700000893
:1000A000E7000008E7000008E7000008E700000894
:1000B0007929000800000000000000000000000096
:1000C0000348854600F034F800480047A12900089D
:1000D000F80400200448804704480047FEE7FEE794
:1000E000FEE7FEE7FEE7FEE7251D0008C100000869
:1000F00070B50446002903D000202022012310E01F
:10010000002801D00020C043C046C0460DE025466F
:10011000D5408D4205D30D469540641B1D46954044
:1001200040191546521E002DF1DC214670BD00001D
:100130001CB5094800900948019005460126009C1D
:1001400005E0E36807CC33430C3C98471034AC42DD
:10015000F7D3FFF7B9FF0000383100085831000825
:1001600080B5802000F090F80120400300F08CF86A
:1001700080BD72B6FEE7000070B500282CD00146A5
:1001800024314A78022A29D1046822680E239A432E
:100190002260426C1568314B1D40156025680122B4
:1001A00095432560046C1C2525401446AC402C4D1D
:1001B0002E6826432E60846CC56C6560046D002C2F
:1001C00005D025681D402560436D806D58604A70DC
:1001D000002000220A7070BD012070BD0422C2639D
:1001E000012000220A7070BD70B5242101244454FE
:1001F000014624314A78022A2BD103681A680E245A
:10020000A2431A601C68012294431C60446C256858
:10021000124B1D402560046C1C2525401446AC4043
:100220000F4D2E6826432E60846CC56C6560046D8E
:10023000002C05D025681D402560436D846D5C60F1
:1002400000240C704A70816B002900D0884720463A
:1002500070BD0421C163204670BDC046FFFEFFFF94
:1002600004000240B0B5044600F0FCF80546601CEE
:1002700002D099480078241800F0F4F8401BA042FE
:10028000FAD3B0BD70470000B0B50446074D2868EA
:10029000204203D02C60204600F00AF86868204213
:1002A00003D06C602046FFF7EDFFB0BD0C18024094
:1002B00070470000F0B58AB0069009910B68002BDA
:1002C00000D1B4E05B480699814201D0062000E0ED
:1002D00005200B221207069989180A22D1410091A4
:1002E000042900D3009006982030019000252E4666
:1002F000079529460FE01A4362600899491C09983E
:1003000003681846C8400835B61C079A121D0792A4
:10031000002800D18BE0012420460891884003404A
:100320000393EAD0049509994A68102111431229D0
:1003300015D11C21079A114005960F2632468A4096
:10034000089BDB089F00019BDD599543099A1269C0
:100350003240059E8A402A43DA5109994A680323AC
:1003600011461940B1400293B3403746069E3568A6
:100370009D430D4335603E46D9430591122A049DA5
:1003800015D894402E490C420FD0069CA168059BBD
:100390001940099BDB68B3400B43A3601109089B1C
:1003A0009940636883430B436360032AA5D0069B8F
:1003B000D8680599084009998968B1400143D96016
:1003C000D0009AD5182028400F218140089A029B1E
:1003D0009A43194CA218136E8B430099814019431C
:1003E00011661648026809984068C10302D5039B4C
:1003F0001A4301E0039B9A4310490A604A6881034B
:1004000001D51A4300E09A430C494A602268C102B0
:1004100005D51A4322606268800206D56BE79A43CD
:1004200022606268800200D565E79A4364E70AB0FB
:10043000F0BDC04600140050001802408018024071
:100440000600060042690B4693430A401104C9188E
:1004500081617047002A02D01822815070472822FB
:1004600081507047054800687047C0461A480078B8
:1004700002490A68101808607047C046F40000205E
:1004800080B5032000F008F8002801D0012080BDCD
:1004900000F026F8002080BD70B50F4E31780124A1
:1004A000002916D005467D20C000FFF721FE014639
:1004B0000A480068FFF71CFE00F01EFE032D08D856
:1004C000002806D10024E0432946224600F02AF8FD
:1004D0007560204670BDC046040000200C0000205E
:1004E00082B00948416801221143416041681140CE
:1004F00001910199110702680A43026000680840EF
:100500000090009802B070473C100240002805D4CB
:100510001F21084001218140014801607047C04609
:1005200000E100E0002805D40322034693430A4A71
:100530009A1803E00C220240064BD2188007C00E26
:100540008901C9B28140FF23834010689843084362
:100550001060704714ED00E000E400E00B48026812
:1005600007239A4302600A48036804221343036086
:10057000012904D130BF016891430160704740BF39
:1005800020BF20BF016891430160704700700040A8
:1005900010ED00E0F0B585B00446007840064C4E02
:1005A00001D4002035E0012001073746203F3A689A
:1005B00003910A40029207D13968039A11433960C6
:1005C0003968114004910499032101910A023168AC
:1005D000114010D0E26991420DD0316800043268B8
:1005E000024332603268824332600846394A104022
:1005F0003060C8075AD1306836490840E169014384
:10060000316000200299002903D13968039A91438F
:1006100039602168CA070BD18A0713D48A061CD413
:100620000A0725D44A072DD4090636D405B0F0BDF3
:100630003246083A13680325AB43A5681D4315608D
:100640008A07EBD5032212033346083B1D68954306
:10065000E2682A431A608A06E2D5032292073346EB
:10066000083B1D689543A2692A431A600A07D9D539
:1006700001221203331F1D68954362692A431A60E1
:100680004A07D1D5032292033346083B1D689543A0
:1006900022692A431A600906C8D55C3E3168E02207
:1006A000914362680A43326005B0F0BDFFF7DAFE9D
:1006B0000546306880079ED4FFF7D4FE401B7B4977
:1006C0008842F6D90198029900299ED0A1E7C04638
:1006D0005C100240FFFCFFFFF0B583B00D46014601
:1006E000012000296BD0029101906F480068072714
:1006F0003840854215D96C490868B84328430860DA
:100700006A4CFFF7AFFE0646674800683840A842CB
:1007100007D0FFF7A7FE801BA042F5D9032003B046
:10072000F0BD029B186881079E4C10D5410707D584
:100730007B21090222688A430B210902511821609A
:100740000F21090222688A43D96811432160C0073A
:100750001AD1554800683840854232D2524908685B
:10076000B84328430860514CFFF77CFE06464E48CC
:1007700000683840A84224D0FFF774FE801BA042D6
:10078000F5D9032003B0F0BD2246083A10681C21B9
:1007900088439968014311605968032943D8880048
:1007A00001A31B5801989F46B90700081F080008BD
:1007B0000F080008170800081268520537D403B064
:1007C000F0BD029A10784007764C05D538032168B1
:1007D0008143106908432060204608380168226878
:1007E0009206520F06D0226838200240082A07D10C
:1007F0006D4842E000688004420F6C48D0403CE005
:1008000022680240202A2AD10120C00335E0126864
:100810001202D4D50BE0A26D9207D0D507E0126882
:100820009203CCD503E0606D80070198C7D520689E
:10083000B84308432060FFF715FE064620683821BC
:10084000014002984068C000814282D0FFF70AFE52
:10085000801B16498842F1D9032003B0F0BD2268FD
:100860000240182A02D17D20000206E022680240E0
:10087000102A01D0002000E04C48C906490F491C4D
:10088000FFF736FC216889093C220A402A49895829
:100890001F220A40D040F1490860F1480068FFF784
:1008A000FBFD03B0F0BDC0460020024088130000ED
:1008B00010B53C4C20460838016822689206520F59
:1008C00006D0226838200240082A07D136481AE0AC
:1008D00000688004420FE048D04014E022680240E3
:1008E000202A02D10120C0030DE022680240182A0C
:1008F00002D17D20000206E022680240102A01D0C9
:10090000002000E0D448C906490F491CFFF7F0FB5E
:10091000216889093C220A40074989581F22114051
:10092000C840CE4908602168890A1C230B4003494E
:10093000C9581140C84010BD203000086030000880
:1009400080B518480246083A116803689B065B0F99
:1009500006D0036838221340082B07D112481AE04A
:1009600010688004420FBC48D04014E00368134074
:10097000202B02D10120C0030DE003681340182B87
:1009800002D17D20000206E000681040102801D04E
:10099000002000E0B048C906490F491CFFF7A8FB3A
:1009A00080BDC0460810024000127A00006CDC02D4
:1009B000F0B581B004460120002C00D148E1009040
:1009C0002078C007A34E08D0B06838220240616882
:1009D000082A4BD1002900D190E02078800721D44B
:1009E0002078000709D5B06838220240A169182A8A
:1009F00000D086E0002900D180E0207840070AD5A9
:100A0000B06838220240A168202A00D08DE0002979
:100A1000009800D11CE120780025C00637D4284674
:100A200001B0F0BDE268B0688006400F47D0306882
:100A300001218F02002A00D184E00722D2029043D4
:100A40002269024332600802316801433160FFF7D6
:100A500009FD05463068384200D09BE0FFF702FDF3
:100A6000401B0228F6D9032001B0F0BD30680123F5
:100A70005F041A04914207D005252D04A94272D1C2
:100A800099040843306030681043306073E0306888
:100A90000121CF05E2698905002A00D183E00843DE
:100AA0003060FFF7DFFC044630683842B7D1FFF70B
:100AB000D9FC001B0228F7D9032001B0F0BD002AA1
:100AC0001CD07F20000271688143606900020843E6
:100AD00070600720C002316881432069084330609C
:100AE00030688004400F5C49C1405C4801605C484C
:100AF0000068FFF7D1FC002800D171E7009801B031
:100B0000F0BD306E00295ED0012108433066FFF74A
:100B1000A9FC0546306E800700D56EE7FFF7A2FC02
:100B2000411B03200229F5D992E0F06D012905D07F
:100B3000052959D104210843F065F06D01210143D5
:100B4000F1655AE0090288433060FFF78BFC0546E7
:100B50003068384200D143E7FFF784FC411B032093
:100B60000229F5D974E090433060980432688243DA
:100B70003260002950D0FFF775FC054630683842D6
:100B800000D02AE7FFF76EFC401B6428F6D903204B
:100B900001B0F0BD7F2000027168814360690002EE
:100BA000084370601CE788433060FFF75BFC044635
:100BB0003068384200D132E7FFF754FC011B0320B4
:100BC0000329F5D344E0012188433066FFF74AFC4E
:100BD0000546306E800700D40FE7FFF743FC411B4A
:100BE00003200229F5D933E001229043F065F06D2E
:100BF00004229043F06500291CD01A4FFFF732FC05
:100C00000546F06D800700D505E7FFF72BFC411B7B
:100C10000320B942F5D91BE0FFF724FC05463068F4
:100C2000384200D1D9E6FFF71DFC411B032064299F
:100C3000F5D90DE00B4FFFF715FC0546F06D800769
:100C400000D4E8E6FFF70EFC411B0320B942F5D9BA
:100C500001B0F0BD00100240006CDC020C0000206E
:100C60000800002088130000B0B500684568280C13
:100C7000C8703F242C408C70EB04DB0E4B702D04AD
:100C80006D0F0D70002A01D00020B0BD0522D243A7
:100C9000250955432C198C701C095443E3184B70DB
:100CA000C3B21B0953431818C8700020B0BD000020
:100CB000B0B5006883684B600369124C1C408C60BF
:100CC00003687F20184088705C02E40FCC705C04DD
:100CD000640E4C709B029B0E0B70002A01D000200A
:100CE000B0BD0522D2430509554328188870200954
:100CF00050430019487018095043C018087000206C
:100D0000B0BDC046FF7F0000F0B581B000282ED0F6
:100D10000446064624367078002804D1002030703E
:100D2000204600F05DF8022070702068C168C90696
:100D30004FD4CA21416253214162EC4F38684006CA
:100D40001ED43868802101433960FFF78BFB0546CC
:100D50003868400614D4FFF785FB3A6840211140FB
:100D6000401BE34A904205D20029F4D008E001205C
:100D700001B0F0BD002903D103207070396815E07F
:100D8000F86816490140F960606821690143A0696B
:100D90000843F9680143F960E068A1680904014368
:100DA0007960204600F06AFF002804D02168FF2205
:100DB0004A6201B0F0BD07204007F9688143E0694D
:100DC000226A0A43024360691043F8602068FF21E9
:100DD000416201207070002001B0F0BDBFFF8FFFA5
:100DE00010B58AB0002108910791069105910491F0
:100DF000039100680F49884201D00AB010BD40201D
:100E0000029001242002099002A8FFF7C3FB0028EA
:100E100001D0FFF7AEF9E00307490A6A02430A620C
:100E2000A0020A6802430A60096801400191019822
:100E30000AB010BD002800403C100240F0B585B05B
:100E40002423C35C012B02D1022005B0F0BD034670
:100E5000243302245C70012400941C70002A049343
:100E600007D0CA7813044A781202D7188A780292F7
:100E70003DE04D78EA0603D5EF2215400A354D7066
:100E8000CA7800260A2A0FD30A3AD3B2CD245C438B
:100E9000E30A0A245C43121B1B0110331343DAB22A
:100EA0000A2D06D233460EE033461343DAB20A2D3A
:100EB000F8D30A3DEBB2CD245C43E30A0A245C4339
:100EC0002D1B1B01103312042B43DBB21F028D7844
:100ED0000A2D09D30A3DEBB2CD245C43E30A0A2470
:100EE0005C432D1B1E01103617432E4302960390C0
:100EF0000068CA22426253224262087801907B4E07
:100F00003068400623D43068802101433160FFF708
:100F1000A9FA05463068400619D4754CFFF7A2FAC5
:100F2000326840211140401BA04202D20029F5D076
:100F30000DE000290BD10320049B58703168039900
:100F40000968FF224A620021197005B0F0BD0298BD
:100F5000C0B2074301984003C0218F430743039C5D
:100F600020684760204600F089FE2168FF224A621F
:100F70000028049BE7D100985870002000211970C8
:100F800005B0F0BDF0B585B004462420205C0128F2
:100F900002D1022005B0F0BD019202912246243216
:100FA000022050702068CA21416253214162012011
:100FB0000492039010704D4E3068400622D4306881
:100FC000802101433160FFF74DFA07463068400643
:100FD00018D4474DFFF746FA326840211140C01B34
:100FE000A84202D20029F5D00CE000290AD1032042
:100FF000049B587031682168FF224A6200211970F1
:1010000005B0F0BD2068826940211140019A002A94
:1010100005D00029029F16D10021F97015E00029A2
:10102000029F01D10021F9703A7800210A2A16D3D3
:101030000A3AD3B2CD255D43EB0A0A255D43521B24
:101040001B0110330CE0F9788905039D3A781204EE
:101050007B781B029A18BB78D3180B432AE00B4607
:101060001343DAB213047A780A2A0AD30A3AD5B2B9
:10107000CD266E43F50A0A266E43921B2D011035CC
:1010800000E00D461543EAB212021A43BB780A2B60
:1010900009D30A3BD9B2CD254D43E90A0A254D4370
:1010A0005B1B09011031039D1943C9B20A43F9784A
:1010B0008B0513430F4919400160A90482698A43D3
:1010C0008261F9683A690A43816911438161204666
:1010D00000F0D4FD2168FF224A620028049B8DD1D4
:1010E0005D7000200021197005B0F0BD0C28004093
:1010F000E90300007F7F7F00401E010E01D0012028
:1011000070470749074A5060074803680B400321AE
:10111000890759180160002090600721116070470D
:10112000FFFFFF0010E000E020ED00E0B0B58421FB
:10113000415C012901D10220B0BD01468431242245
:101140004A600268136814680125AC4314606C0798
:10115000A34313600022426610460A7020224A60B0
:10116000B0BD704770470000F0B583B005466835E4
:101170002A7F012A02D1022003B0F0BD064688363C
:101180002422326007683A6802923A680124A24336
:101190003A6007225206BB6893430B43BB60406E24
:1011A0000028204615D0B8680190B868400F2E4935
:1011B000095C2E4A105CC000FEF79AFF04460198B5
:1011C0000001400F2849095C284A105CC000FEF766
:1011D0008FFF28806C8002983860002028772021BB
:1011E000316003B0F0BDC046F0B583B00546683548
:1011F0002A7F012A02D1022003B0F0BD06468836BC
:101200002422326007683A6802923A680124A243B5
:101210003A6007225207BB6893430B43BB60406EA2
:101220000028204615D0B8680190B868400F0E49D4
:10123000095C0E4A105CC000FEF75AFF0446019894
:101240000001400F0849095C084A105CC000FEF725
:101250004FFF28806C80029838600020287720217A
:10126000316003B0F0BDC046A030000898300008DF
:101270007047704770470000F0B589B00368DF69B8
:10128000202501210691CE0232462F323A401968BC
:1012900008900446803405939B68202A049507979C
:1012A00010D108462840012212071A4080181F4614
:1012B00016D00898416F002900D158E10898884756
:1012C00009B0F0BD30460F3007421F4608D0CF4866
:1012D0000840069A1207551C3D40281800D091E09E
:1012E000039410260846304042424241079D28465A
:1012F00030404442444114430898C06E401E421E90
:101300009041204337D001240126B2053A40504293
:101310005041EA022246059B00D50246002A00D130
:10132000A6E0280606D580200840F2051740C0191F
:1013300000D0BDE140230A461A40504250416A069F
:10134000224600D50246002A00D14AE1B2070A40EF
:10135000504250412A02224600D50246002A00D1BE
:10136000B1E1002900DAB3E1E80100D5B4E1002CD5
:1013700000D0FCE0B4E1089C5C340598066280680B
:10138000400600D57BE0618822886088002800D173
:10139000EDE08A4200D1EAE0EFF3108007900123EC
:1013A00083F3108809204501089837460668346899
:1013B000AC433460079C84F31088EFF310840794E7
:1013C00083F310880568AE68C84C3440AC60079C55
:1013D00084F31088049C039DEC6000244467C46679
:1013E000EFF3108483F3108803681D68BD431D600C
:1013F00084F3108802230367511A89B2FFF7B1FE04
:1014000009B0F0BD009203940798069B1840424231
:101410004241180201910840444244411443059B53
:1014200005D101201862039C226902432261012038
:101430003C46029004406042604107998A07069A40
:1014400000D50246002A06D10220186203980169DD
:1014500004220A4302616042604107994A07069AE2
:101460005ED4002A039C5FD00798000765D46EE025
:10147000300518620898FFF7FCFE09B0F0BD22881D
:10148000039800680068436899B2002900D19CE085
:10149000914200D399E063800068800635D4EFF371
:1014A0001082012181F31088924B2033089805683F
:1014B00037462E681E402E6082F31088EFF31082AC
:1014C00081F3108803689D688D439D6082F31088C6
:1014D000EFF3108281F3108803689D684026B543BE
:1014E0009D6082F31088039B049ADA600022C26632
:1014F000EFF3108281F3108800680168B94301603E
:1015000082F310881868FEF737FE022108980167F9
:1015100021886288891A89B2FFF723FE09B0F0BDDD
:101520000246002A039C9FD10420186220690222EF
:10153000024322610798000709D50198049A1040D8
:10154000054304D0082018622269024322610298F0
:10155000820601990A4050425041079A324208D10E
:1015600006980028049A09D0206900280DD109B0F6
:10157000F0BD069006980028049AF5D11E622069F5
:101580001043206120690028F1D0079810400DD049
:101590001140009807400F4308D00898416F002978
:1015A00004D0089C204688472368039C2069282291
:1015B0000240986840210840801829D10898FFF718
:1015C00059FE0020206109B0F0BD8A42CFD10068E9
:1015D0008006CCD5022208980267FFF7C2FD09B049
:1015E000F0BDEFF3108186F3108808980268146844
:1015F0009C43146081F31088002181670399049A49
:101600008A6000F04DFA09B0F0BDC0462001000428
:10161000EFF31080029E86F3108809225201089B86
:101620001C6825689543256080F31088EFF31080CF
:1016300086F310881A6894682C4D2540956080F3D5
:101640001088D86E01280CD1EFF31082029880F335
:1016500010880898006803681024A343036082F38D
:101660001088039C0498E0600020089AD0665067B8
:1016700010688068400621D5EFF31082029880F34D
:1016800010880898006883688B43836082F3108811
:101690002168002912D0164888630846FEF7A4FD89
:1016A000002800D163E72068816B884709B0F0BD4E
:1016B0000898816F002900D000E658E70898FFF7E6
:1016C000D9FD09B0F0BD0898FFF7D2FD09B0F0BD13
:1016D0000026E80100D44AE63446002C00D046E754
:1016E0000898FFF73FFD09B0F0BDC046FEFFFFEFD1
:1016F000D91E0008DFFEFFFFB0B500281ED004464B
:10170000054684356868002804D1002028702046EA
:1017100000F02AF824206860206801680125A943A8
:101720000160A06A002802D0204600F003FB20469A
:1017300000F0E0FE002803D02846B0BD0120B0BD77
:101740000920C00221684A6882434A6088682A22C8
:10175000904388600868012202430A60204600F036
:1017600053FB05462846B0BDB0B586B000240594AD
:10177000049403940294019400686249884201D061
:1017800006B0B0BD13488268012105914B041A438D
:10179000826082681A400092009A02680A430260DE
:1017A00000680840009004940394022002900C20EA
:1017B000019000980520000701A9FEF77BFD1C257C
:1017C000284621462246FEF7ADFE2846FEF79EFE3D
:1017D00006B0B0BD34100240F0B581B08C23C358C0
:1017E000202B12D1012400290CD0002A0AD0012379
:1017F0001C038568A5420CD1CC070AD00469002CD3
:1018000007D11C46204601B0F0BD0224204601B09D
:10181000F0BD0024C46605686D682D020AD5EFF39B
:10182000108583F310889B06066837681F4337606E
:1018300085F3108800F020FF204601B0F0BD0000C5
:1018400080B500682F49884200D080BD2E480179BC
:101850000D2901D00A294ED1C278002A18D001469C
:10186000093100238B54427A002A1ED1417A827AB0
:1018700012025118C27A1204037B1B069A185118DF
:10188000224A914204D18178002901D1012141707D
:101890000021C170011DF6480122FFF79DFF80BDA8
:1018A0000B1D0A79002A1946E0D01346613BDBB2D2
:1018B000192B01D8203A0A704A78002AD6D013464C
:1018C000613BDBB2192B01D8203A4A708A78002A92
:1018D000CCD01346613BDBB2192B01D8203A8A7079
:1018E000CA78002AC2D01346613BDBB2192BD7D885
:1018F000203ACA70D4E7C278082ACBD88318597224
:10190000511CC6E700440040100000204F4646002E
:10191000F0B585B0074688203858202810D101201E
:1019200000290BD0002A09D001200403BD68A5427C
:1019300009D1CD0707D03D69002D04D105B0F0BD18
:10194000022005B0F0BD019302913D465435394661
:10195000883100200390886021200091086016469D
:10196000FEF780FD04906E802E80B868A04202D100
:10197000386900285ED0029C019E039A3968688805
:1019800000285ED0701C454B2ED0002E49D003920B
:10199000C869000608D4FEF765FD0499401AB042F4
:1019A00067D839680868F3E7002C03D0207888628C
:1019B000641C07E0039A1088384B18408862921C18
:1019C000039200246888401E688068880028DFD160
:1019D00037E0108818408862921C00246888401EF6
:1019E0006880688800282CD0C869000608D4C869B7
:1019F000000605D4C869000602D4C8690006F3D5FC
:101A0000002CE6D020788862641CE7E71088184034
:101A10008862921C00246888401E688068880028BC
:101A20000FD0C869000622D5002CEFD0207888623C
:101A3000641CF0E70024029A019E39686888002837
:101A4000A0D1CA690020520614D4002E0FD0721CF7
:101A500015D1009BCA6952060DD4CA6952060AD430
:101A6000CA69520607D4CA695206F3D503E0FEF7E5
:101A7000F9FC0320009B2021196005B0F0BD04464D
:101A8000FEF7F0FC0499401AB042F2D838680168B9
:101A9000C0694006F4D52046ECE7C046FF010000CF
:101AA0007047FEE7F0B589B00024089407940694C7
:101AB00005940494324801680422114301600168CE
:101AC00011400391039901680127394301600168BE
:101AD0003940039103990168022200921143016089
:101AE00000681040039003980520000702907D02D3
:101AF00029462246FEF7AEFC224829462246FEF73A
:101B0000A9FC2148202101912246FEF7A3FC06975B
:101B10001E4805907803049004AE1A483146FEF73B
:101B2000C9FB009806901A4805908020049015483B
:101B30003146FEF7BFFB079406940597049502987B
:101B40003146FEF7B7FB07940694059704950D48B8
:101B50003146FEF7AFFB0794069405970198049071
:101B600009483146FEF7A6FB0725284621462246AE
:101B7000FEF7D8FC2846FEF7C9FC09B0F0BDC04608
:101B800034100240000800500004005000002110F2
:101B900000001110B0B586B01A4800240462FF217D
:101BA0007F22194B0125AD0718C002604160846097
:101BB000C460046145610394029401940094083860
:101BC000FFF7A2F8002801D0FEF7D3FA01A98C7024
:101BD0000C800594049402940A480122FFF7D2F97C
:101BE000002801D0FEF7C5FA08480090054869466C
:101BF0000122FFF723F9002801D0FEF7BAFA06B058
:101C0000B0BDC0463800002000280040010101009E
:101C100010B5174800210C22164B01624162816207
:101C2000E124640218C0016041608160C26001610A
:101C300041610838FFF760FD002801D0FEF799FAEE
:101C40000B480021FFF7D0FA002801D0FEF791FAE7
:101C500007480021FFF788FA002801D0FEF789FA2B
:101C60000348FFF763FA002801D0FEF782FA10BD9F
:101C70006000002000440040FEE77047F0B583B0EC
:101C80000290244F38688021884338607D20C4004A
:101C9000F86880061AD43868202188433860FEF737
:101CA000E1FB06463868002580060CD4FEF7DAFB17
:101CB000801BA042F6D93868800604D4252003256D
:101CC00002990D540D54284603B0F0BD2020019018
:101CD000C043F9680140F960396801403960FEF796
:101CE000C1FB06463868002580060CD4FEF7BAFB17
:101CF000801BA042F6D93868800604D4252003252D
:101D000002990D540D54F86801990843F86028466B
:101D100003B0F0BD0C280040704780B5FEF7A6FB6D
:101D200080BD00000120C006014908607047C04620
:101D300008ED00E0B0B5816A0A070CD4CA0714D1D7
:101D40008A071CD44A0724D4CA062CD48A0634D461
:101D50004A063CD44CE00122D20303685C689443F9
:101D6000826B22435A60CA07EAD0012252040368F8
:101D70005C689443C26A22435A608A07E2D5012212
:101D8000120403685C689443026B22435A604A075A
:101D9000DAD50122920403685C689443426B2243C3
:101DA0005A60CA06D2D50122120303689C68944384
:101DB000C26B22439A608A06CAD501225203036885
:101DC0009C689443026C22439A604A0610D5012213
:101DD0001305026854689C43456C2C4354609D4233
:101DE00006D103235B0554689C43836C23435360F3
:101DF000090607D50121C904026853688B43C06CEA
:101E000018435060B0BD0000F0B583B004460646EC
:101E100084360025F560FEF725FB0346206801683F
:101E2000090721D502952B4800900125690500225C
:101E300020461F4600F0BEFC002812D0EFF31080B1
:101E400085F3108821680A6880239A430A6080F32A
:101E50001088032020228821029D6250357003B033
:101E6000F0BD20683B46029D0068400726D5194812
:101E700000900127B9050022204600F09BFC0028B5
:101E80001CD0EFF3108087F31088092149012268E4
:101E900013688B43136080F31088EFF3108087F38F
:101EA000108821688A68BA438A6080F3108803200A
:101EB00020228C216250357003B0F0BD202070606C
:101EC000B060E56670212A4628466250357003B03E
:101ED000F0BDC046FFFFFF0180B5806A5E21002291
:101EE0004252FFF7C7F980BDF0B581B08C2141584F
:101EF0000268222910D101465C318B88526A1A404F
:101F0000836D1A804A88521E4A809A1C82654A88CC
:101F1000002A07D001B0F0BD90690821014391610A
:101F200001B0F0BD03468C33EFF31084012282F33D
:101F3000108809256D0106683768AF43376084F360
:101F40001088EFF3108482F310880568AE6896431A
:101F5000AE6084F3108820241C600023036743676D
:101F60000468646824020AD5EFF3108482F31088B1
:101F7000950606683768AF43376084F31088C46EEF
:101F8000012C15D1C366EFF3108382F31088046827
:101F9000256810229543256083F310880368DC6967
:101FA000E40600D51A620988FFF7DBF801B0F0BD3E
:101FB000FFF746FC01B0F0BDF0B583B004460268FF
:101FC000D569116890688C23E358222B64D126468A
:101FD0005C3601220192B289002A00D10AE127462B
:101FE0008C37B2880292019A1040C9055AD4002851
:101FF00022D103E07088002800D1B6E0A80600D402
:10200000F8E02068416A029A1140A26D118071883F
:10201000491E7180911CA165C5696807EAD078687E
:102020000028E7D02046FFF725F900207860E1E797
:102030007088002800D198E0A80600D4DAE0206873
:10204000416A029A1140A26D11807188491E718007
:10205000911CA165C5696907EAD0AA0705D40029C2
:102060000BD47868002811D1E2E7022202627A6874
:10207000042313437B600029F3D5042101627868AF
:1020800002210143796078680028D1D02046FFF70B
:10209000F1F800207860CBE7906908210143916155
:1020A00003B0F0BD002827D102E0708800285CD082
:1020B000A80600D49EE02068416A029A1140A26DF1
:1020C00011807188491E7180911CA165C5696907DD
:1020D000EBD0E90704D00199016278680843786081
:1020E00078680028E1D02046FFF7C4F80020786027
:1020F000DBE77088002838D0A80600D47AE0206892
:10210000416A029A1140A26D11807188491E718046
:10211000911CA165C5696907EBD0EA0707D1AA0739
:102120000CD4002912D47868002818D1E1E7019B6B
:1021300003627A681A437A60AA07F2D50222026221
:102140007A68042313437B600029ECD504210162E3
:10215000786802210143796078680028C9D0204658
:10216000FFF788F800207860C3E7EFF31080019D47
:1021700085F310882902226813688B43136080F36B
:102180001088EFF3108085F3108821688A68D84B97
:1021900013408B6080F31088202038600020206777
:1021A00060672168496809020BD5EFF31081019A35
:1021B00082F31088920623681D6895431D6081F3A1
:1021C0001088E16E012937D1E066EFF310810198A4
:1021D00080F310882268136810208343136081F312
:1021E00010882168CA69D20600D508623188204665
:1021F000FEF7B7FF7088002824D0B189884221D229
:10220000EFF31080019D85F31088B949491C2268BD
:1022100093680B40936080F310880B486067EFF37E
:10222000108085F3108821680A68202313430B600F
:1022300080F3108803B0F0BD2046FFF701FB7088E3
:102240000028DAD103B0F0BDE91E0008F0B581B076
:102250008C2141580268222911D101465C318B88BA
:10226000526A1A40836D1A704A88521E4A80826DE3
:10227000521C82654A88002A07D001B0F0BD9069DF
:1022800008210143916101B0F0BD03468C33EFF3A7
:102290001084012282F3108809256D0106683768D1
:1022A000AF43376084F31088EFF3108482F3108813
:1022B0000568AE689643AE6084F3108820241C60E5
:1022C0000023036743670468646824020AD5EFF3B8
:1022D000108482F31088950606683768AF4337602C
:1022E00084F31088C46E012C15D1C366EFF31083FC
:1022F00082F310880468256810229543256083F3D3
:1023000010880368DC69E40600D51A620988FEF7C4
:1023100028FF01B0F0BDFFF793FA01B0F0BD000057
:10232000F0B585B004460068C56901680191876809
:102330008C216158222964D122465C329089002880
:1023400000D1A9E026468C369088029001200740F3
:1023500004900002019901400191039202E050882B
:10236000002854D0A80600D496E02068406A02995C
:102370000840A16D08705088401E5080A06D401C20
:10238000A0652068C5696907E9D0019B5A425A4196
:10239000EB07049B00D01346002B04D101220262FC
:1023A0007368134373607A427A41AB07049B00D58C
:1023B0001346002B05D102220262726804231343E4
:1023C00073607A427A410029049906D4002907D023
:1023D00070680028039A0DD1C1E711460029F7D192
:1023E0000421016270680221014371607068002855
:1023F000039AB4D02046FEF73DFF039A0020706098
:10240000ADE7816908220A43826105B0F0BDEFF3B0
:102410001081012080F31088020223681D68954313
:102420001D6081F31088EFF3108180F3108822681B
:1024300093682F4D1D40956081F3108820213160F5
:102440000021216761672268526812020AD5EFF302
:10245000108280F31088830625682E689E432E60C4
:1024600082F31088E26E012A38D1E166EFF3108121
:1024700080F310882268136810208343136081F36F
:1024800010882168CA69D20600D50862039D298890
:102490002046FEF766FE2A465088002825D09189FE
:1024A000884222D2EFF31080012181F31088104A74
:1024B000521C23689D6815409D6080F31088BB48BE
:1024C0006067EFF3108081F3108821680A68202389
:1024D00013430B6080F3108805B0F0BD2046FFF772
:1024E000AFF9039A50880028D9D105B0F0BDC04695
:1024F000FEFFFFEFF0B581B0044600680168514A65
:102500000A40A16823690B4365691D431543E169CE
:102510000D4305600322120343689343E2681A43A4
:102520004260A269236A13438268474D15401D43E8
:102530008560C26A0F239A43676A3A43C262434A7C
:10254000904209D0424A904208D14248406D8007EB
:10255000000F41A2125802E0002200E0102226469D
:1025600068360125E803814210D1082A61D8C046A7
:102570007A44127952009744045C195C2B5C5C5CD1
:102580003000FEF795F9002826D151E0082A50D8EE
:102590007A44127952009744044C124C354C4C4CFE
:1025A0003A00FEF785F9002830D141E0294800685B
:1025B0000006400F411C2C48FDF79AFD0DE0254810
:1025C00000680006400F411C2748FDF791FD1EE002
:1025D000FEF7B6F900282BD0676A7900234A515AD2
:1025E000FDF786FD400061684A081018FDF780FD80
:1025F0000246103A1E498A421BD201400007400F92
:10260000084313E0FEF79CF9002811D0676A7900AF
:10261000164A515AFDF76CFD61684A081018FDF71B
:1026200067FD01461039124A914202D22168C86002
:1026300000251048306000206067A067284601B080
:10264000F0BDC046F369FFCFFFF4FF110044004026
:1026500000380140001002400000000004000000AB
:102660000200000008000000006CDC02803000085E
:10267000F0FF000001000100F0B55C23C25281654B
:102680000021416703465C335A80856804468C34D8
:10269000002D12D001263707BD4208D03603B542BF
:1026A00014D10569002D0ED13D4D9D800FE00569C7
:1026B000002D05D03F259D8009E00569002D02D041
:1026C0007F259D8003E0FF259D8000E0998061606B
:1026D00022212160EFF31084012181F31088056825
:1026E000AE680E43AE6084F310880C034D07466E4F
:1026F000AE4202D19B899A421BD202698368A342EF
:1027000004D1002A1ED0294A426703E0274B4367C1
:10271000002A19D0EFF3108281F3108809020068B3
:1027200003680B4320211943016082F310880020C5
:10273000F0BD02698368A34213D1002A21D0194A4F
:10274000426712E01A4A4267EFF3108281F3108861
:102750000068016820230B43036082F31088002087
:10276000F0BD104B4367002A0DD0EFF3108281F3C8
:1027700010880B02046825681D43256082F31088C9
:1027800001E0094A4267EFF3108281F310880907DC
:10279000006883680B43836082F310880020F0BDDB
:1027A000FF01000021230008B91F00084D22000886
:1027B000E91E0008F0B585B01F4615460E460368B1
:1027C000D9693140891B4A424A410021954222D1B0
:1027D0000A9C002C22D00391611C24D1D96931407C
:1027E000891B4A424A41954231D1D9693140891BFE
:1027F0004A424A4195422AD1D9693140891B4A420D
:102800004A41954223D1D9693140891B4A424A4104
:102810009542E3D01BE0084605B0F0BDFDF722FE6F
:10282000032005B0F0BD402E049001D0802E14D1BD
:10283000FDF718FEC01BA0420CD804980068016880
:10284000C0693040801B414241418D42F0D0039825
:1028500005B0F0BD032005B0F0BD8430019001202B
:102860000090C002029006E0C8693040801B4142DF
:1028700041418D42EBD1FDF7F5FDC11B0320A14283
:102880003FD8049909680A685207EDD5CA6912074A
:1028900039D4CA69029B1A42E6D0029A0A62EFF35F
:1028A0001082012181F3108809235B01049C2468B4
:1028B00025689D43256082F31088EFF3108281F331
:1028C0001088049B1B689C682A4D25409D60049BD2
:1028D00082F31088DA6E012A0BD1EFF3108281F3B4
:1028E000108819680B681024A3430B60049B82F3C3
:1028F00010882021019CA1600022DA665A672270AC
:10290000E16005B0F0BD08250D62EFF3108100987D
:1029100080F3108809225201049B1B681C689443B1
:102920001C6081F31088EFF3108180F31088049A03
:10293000126893680F4C1C40049B946081F31088CC
:10294000D96E01290CD1EFF31081012282F3108896
:102950001A6813681024A3431360049B81F3108842
:102960002021019A91600021D96659671170D560C4
:1029700005B0F0BDFEFFFFEF80B5AB48FEF77CFC75
:1029800080BDC04680B582B001900020C343A648F8
:1029900001A90122FEF7BCFF019802B080BDC0462C
:1029A0009EB0FDF76DFD00241D941C941B941A9499
:1029B00019941894179416941594149413941294CB
:1029C0001194012018907E4A116801430623079351
:1029D000994311607B4A11681826B143116014278E
:1029E000169785051D9516A8FDF7E2FF002801D072
:1029F00072B6FEE704970596039515941494139404
:102A0000022612960725119511A801210891FDF7BC
:102A100063FE002801D072B6FEE701950296FFF72B
:102A200041F8FFF7F5F8FFF7B5F80C940CA98C7096
:102A30006548088010940F940E940D9463480B9091
:102A4000634E30462246FEF79DFA0BA930462246D9
:102A5000FEF7F4F95FA000F0D3FA67A000F0D0FA17
:102A6000704D291D70480691089E3246FEF7B4FE4F
:102A700070020A90052000070990A878C0B20128CA
:102A800022D00028FBD16A480A99FDF7DBFC2946D1
:102A9000143100264E4F38463246FEF709F9691DBB
:102AA00038463246FEF7E0F8297D6A7DAB7D61A0AD
:102AB00000F0DEF86848FDF7D5FBA87869780029B2
:102AC000DCD00898A8706E70644800F099FA642011
:102AD000FDF7C8FB56480A9F3946089E3246FDF767
:102AE000B9FC099839462246FDF7B4FC20214F482D
:102AF0002246FDF7AFFC5A485A4901602C70204627
:102B00003146FDF72BFD1D941C941B941A941994C7
:102B10001894179416941594149413941294119471
:102B2000274908683043079A904308602549086898
:102B3000059A9043086003981D9018960498169083
:102B400016A8FDF735FF00280298019933D1159496
:102B5000149413941290119111A80121FDF7BCFD5A
:102B600000282AD1FFF754F8202101262F483246A9
:102B7000FDF770FC09980A993246FDF76BFC3A485C
:102B800000F03EFA29461431114F38462246FEF72E
:102B90008FF8691D38462246FEF766F8297D6A7D62
:102BA000AB7D324800F064F81F4806993246FEF7C4
:102BB00013FEAC7067E772B6FEE772B6FEE7C0467A
:102BC000002002405C1002400A1E00000205151998
:102BD0003800002053697374656D6120696E696304
:102BE0006961646F2E20446973706C6179204C496F
:102BF0004741444F2E0D000052544320636F6E66D0
:102C00006967757261646F20706172612031303A5A
:102C100033303A3030202D2031392F30392F3235B2
:102C20000D0A000010000020600000200004005089
:102C3000000800504D4F444F20415449564F202D1D
:102C400020486F72613A20253032643A2530326470
:102C50003A253032640D0A00BA130000D43000085F
:102C6000187000400100010009310008A830000878
:102C70000FB410B503A9044B044A029800F018F8E9
:102C800010BC08BC04B018478529000800000020CB
:102C900002E008C8121F08C1002AFAD17047704725
:102CA000002001E001C1121F002AFBD17047000083
:102CB000FFB58FB00546002606E025280AD0129AF7
:102CC000119990476D1C761C28780028F5D1304664
:102CD00013B0F0BD002402940121B54A009400E035
:102CE00004436D1C2B780846203B98401042F7D1D6
:102CF00028782A280ED0022228780146303909295E
:102D000016D802990A2359433039401814436D1CD0
:102D10000290F1E7109802C802911090002904DA9D
:102D200001204003044348420290022004436D1CEA
:102D300028782E2817D10420044368786D1C2A288F
:102D40000CD110986D1C02C8009110900BE00099F6
:102D50000A225143303940186D1C009028780146F2
:102D600030390929F3D928786C2810D006DC4C2892
:102D70001AD068280ED06A2817D104E0742813D01E
:102D80007A2812D110E00120400504430CE0012113
:102D9000090501E0032109050C436978814203D14B
:102DA0000120000524186D1C6D1C2878692874D03A
:102DB00006DC00288BD0632827D0642806D16CE07D
:102DC0006E2808D073282CD0752878D0129A1199C3
:102DD0009047761C5FE06002400F022809D003286C
:102DE0000DD00428109801680DD00E60001D1090C1
:102DF00051E01098F21701680E604A60F6E71098EB
:102E000001680E80F2E70E70F0E710986A460178CC
:102E10001173001D10900020507303A80190012031
:102E200005E0109802C8019110900020C04361078E
:102E30000CD5002700E07F1C00998F420FDA8742F3
:102E4000F9DB0199C95D0029F5D108E0002700E010
:102E50007F1C8742FCDB0199C95D0029F8D10298EB
:102E60002146C01B0290129B119A00F0B3F8801902
:102E7000C61907E0019801990078491C0191129A3E
:102E8000119990477F1EF5D22146129B119A029804
:102E900000F090F886196D1C16E70A200190109931
:102EA00001C910916102490F032900D100B2042920
:102EB00000D140B2002803DA40422D2103E00DE0AA
:102EC000210504D52B216A461173012103E0E10796
:102ED00011D02021F7E70CAF0C9114E00A200190EB
:102EE000109901C910916102490F032900D180B2E4
:102EF000042900D1C0B20021EDE70199FDF7F8F8EF
:102F000030317F1E39700028F7D104A8C01B203053
:102F10000190600704D5012000048443009801E07B
:102F2000012000900199884201DD401A00E0002054
:102F3000411800900C9809180298401A0290E0037A
:102F400006D42146129B119A029800F043F8861984
:102F500000200D9008E003A9085C129A119990478F
:102F60000D98401C761C0D900C998842F3DBE00311
:102F70000CD52146129B119A029800F02BF8861965
:102F800004E0129A302011999047761C0099481E4F
:102F900000900029F5DC05E03878129A7F1C119921
:102FA0009047761C0199481E01900029F4DC6BE7DC
:102FB00009280100F8B5044600251E461746880476
:102FC00004D405E039462020B0476D1C641EF9D5B5
:102FD0002846F8BDFFB50446002581B01E46C8034B
:102FE00001D5302700E02027880404D505E03846C5
:102FF0000399B0476D1C641EF9D5284605B0F0BD95
:1030000010B5044601E0FFF7BDFC2078641C0349BD
:103010000028F8D10A20FFF7B5FC10BD0000002001
:1030200000000000000000000000000000000000A0
:103030000000000000000000000000000000000090
:103040000100000002000000030000000400000076
:103050000600000007000000080000000900000052
:103060000000000000000000000000000000000060
:103070000100000002000000030000000400000046
:10308000010002000400060008000A000C00100005
:103090002000400080000001010101030701000041
:1030A00008040204080101013E3E3E20484F5241FF
:1030B00020415455414C2028525443293A20253070
:1030C00032643A253032643A25303264203C3C3C4C
:1030D0000D0A0A00456E7472616E646F20656D2082
:1030E0006D6F646F2053746F702E20546F7175650F
:1030F000206E612074656C61207061726120616373
:103100006F726461722E0D0A000D0A3E3E3E20531E
:10311000495354454D412041434F52444F5520445B
:103120004F204D4F444F2053544F5021203C3C3CA6
:103130000D004F46460000005831000800000020F6
:1031400010000000902C00086831000810000020DA
:10315000E8040000A02C00080000000001000000AE
:0831600004000000001BB70091
:04000005080000C12E
:00000001FF
