:020000040800F2
:10000000B8040020D500000829170008E7150008EB
:1000100000000000000000000000000000000000E0
:100020000000000000000000000000002D17000884
:1000300000000000000000002B1700082F17000828
:10004000E7000008E7000008E7000008E7000008F4
:10005000E7000008E7000008E70000086101000869
:10006000E7000008E7000008E7000008E7000008D4
:10007000E7000008E7000008E7000008E7000008C4
:10008000E70000080000000000000000E700000892
:1000900000000000E7000008E7000008E700000893
:1000A000E7000008E7000008E7000008E700000894
:1000B0008D23000800000000000000000000000088
:1000C0000348854600F034F800480047B52300088F
:1000D000B80400200448804704480047FEE7FEE7D4
:1000E000FEE7FEE7FEE7FEE739170008C10000085B
:1000F00070B50446002903D000202022012310E01F
:10010000002801D00020C043C046C0460DE025466F
:10011000D5408D4205D30D469540641B1D46954044
:1001200040191546521E002DF1DC214670BD00001D
:100130001CB5094800900948019005460126009C1D
:1001400005E0E36807CC33430C3C98471034AC42DD
:10015000F7D3FFF7B9FF0000382700085827000839
:1001600080B5802000F090F80120400300F08CF86A
:1001700080BD72B6FEE7000070B500282CD00146A5
:1001800024314A78022A29D1046822680E239A432E
:100190002260426C1568314B1D40156025680122B4
:1001A00095432560046C1C2525401446AC402C4D1D
:1001B0002E6826432E60846CC56C6560046D002C2F
:1001C00005D025681D402560436D806D58604A70DC
:1001D000002000220A7070BD012070BD0422C2639D
:1001E000012000220A7070BD70B5242101244454FE
:1001F000014624314A78022A2BD103681A680E245A
:10020000A2431A601C68012294431C60446C256858
:10021000124B1D402560046C1C2525401446AC4043
:100220000F4D2E6826432E60846CC56C6560046D8E
:10023000002C05D025681D402560436D846D5C60F1
:1002400000240C704A70816B002900D0884720463A
:1002500070BD0421C163204670BDC046FFFEFFFF94
:1002600004000240B0B5044600F0FCF80546601CEE
:1002700002D099480078241800F0F4F8401BA042FE
:10028000FAD3B0BD70470000B0B50446074D2868EA
:10029000204203D02C60204600F00AF86868204213
:1002A00003D06C602046FFF7EDFFB0BD0C18024094
:1002B00070470000F0B58AB0069009910B68002BDA
:1002C00000D1B4E05B480699814201D0062000E0ED
:1002D00005200B221207069989180A22D1410091A4
:1002E000042900D3009006982030019000252E4666
:1002F000079529460FE01A4362600899491C09983E
:1003000003681846C8400835B61C079A121D0792A4
:10031000002800D18BE0012420460891884003404A
:100320000393EAD0049509994A68102111431229D0
:1003300015D11C21079A114005960F2632468A4096
:10034000089BDB089F00019BDD599543099A1269C0
:100350003240059E8A402A43DA5109994A680323AC
:1003600011461940B1400293B3403746069E3568A6
:100370009D430D4335603E46D9430591122A049DA5
:1003800015D894402E490C420FD0069CA168059BBD
:100390001940099BDB68B3400B43A3601109089B1C
:1003A0009940636883430B436360032AA5D0069B8F
:1003B000D8680599084009998968B1400143D96016
:1003C000D0009AD5182028400F218140089A029B1E
:1003D0009A43194CA218136E8B430099814019431C
:1003E00011661648026809984068C10302D5039B4C
:1003F0001A4301E0039B9A4310490A604A6881034B
:1004000001D51A4300E09A430C494A602268C102B0
:1004100005D51A4322606268800206D56BE79A43CD
:1004200022606268800200D565E79A4364E70AB0FB
:10043000F0BDC04600140050001802408018024071
:100440000600060042690B4693430A401104C9188E
:1004500081617047002A02D01822815070472822FB
:1004600081507047054800687047C0461A480078B8
:1004700002490A68101808607047C046B40000209E
:1004800080B5032000F008F8002801D0012080BDCD
:1004900000F024F8002080BD70B50F4E31780124A3
:1004A000002916D005467D20C000FFF721FE014639
:1004B000D0480068FFF71CFE00F034FB032D08D87D
:1004C000002806D10024E0432946224600F028F8FF
:1004D0007560204670BDC0460400002082B0094807
:1004E0004168012211434160416811400191019925
:1004F000110702680A4302600068084000900098F3
:1005000002B070473C100240002805D41F2108406B
:1005100001218140014801607047C04600E100E0D0
:10052000002805D40322034693430A4A9A1803E09D
:100530000C220240064BD2188007C00E8901C9B2B6
:100540008140FF2383401068984308431060704740
:1005500014ED00E000E400E00B48026807239A4332
:1005600002600A480368042213430360012904D18E
:1005700030BF016891430160704740BF20BF20BF7A
:1005800001689143016070470070004010ED00E089
:10059000F0B583B00D460146012000296BD00291D1
:1005A00001906F48006807273840854215D96C498B
:1005B0000868B843284308606A4CFFF753FF0646B3
:1005C000674800683840A84207D0FFF74BFF801B00
:1005D000A042F5D9032003B0F0BD029B1868810743
:1005E0009F4C10D5410707D57B21090222688A4319
:1005F0000B210902511821600F21090222688A4348
:10060000D96811432160C0071AD1554800683840A5
:10061000854232D252490868B84328430860514C99
:10062000FFF720FF06464E4800683840A84224D015
:10063000FFF718FF801BA042F5D9032003B0F0BDDF
:100640002246083A10681C218843996801431160CA
:100650005968032943D8880001A31B5801989F4675
:1006600071060008D7060008C7060008CF06000874
:100670001268520537D403B0F0BD029A10784007D3
:10068000774C05D538032168814310690843206001
:1006900020460838016822689206520F06D0226868
:1006A00038200240082A07D16E4842E000688004E2
:1006B000420F6D48D0403CE022680240202A2AD1F7
:1006C0000120C00335E012681202D4D50BE0A26D00
:1006D0009207D0D507E012689203CCD503E0606D95
:1006E00080070198C7D52068B84308432060FFF70A
:1006F000B9FE064620683821014002984068C000D3
:10070000814282D0FFF7AEFE801B16498842F1D9A4
:10071000032003B0F0BD22680240182A02D17D20D8
:10072000000206E022680240102A01D0002000E00A
:100730004D48C906490F491CFFF7DAFC21688909B1
:100740003C220A402A4989581F220A40D040F249D7
:100750000860F2480068FFF79FFE03B0F0BDC04696
:10076000002002408813000010B53D4C2046083898
:10077000016822689206520F06D022683820024093
:10078000082A07D137481AE000688004420FE14880
:10079000D04014E022680240202A02D10120C00388
:1007A0000DE022680240182A02D17D20000206E0F6
:1007B00022680240102A01D0002000E0D548C90676
:1007C000490F491CFFF794FC216889093C220A4023
:1007D000074989581F221140C840CF490860216845
:1007E000890A1C230B400449C9581140C84010BD58
:1007F000782600080C000020B826000880B51848AC
:100800000246083A116803689B065B0F06D003682E
:1008100038221340082B07D112481AE010688004D0
:10082000420FBC48D04014E003681340202B02D193
:100830000120C0030DE003681340182B02D17D2076
:10084000000206E000681040102801D0002000E0FF
:10085000B048C906490F491CFFF74AFC80BDC04695
:100860000810024000127A00006CDC02F0B581B082
:1008700004460120002C00D148E100902078C007F8
:10088000A34E08D0B068382202406168082A4BD1D4
:10089000002900D190E02078800721D4207800073B
:1008A00009D5B06838220240A169182A00D086E034
:1008B000002900D180E0207840070AD5B0683822AE
:1008C0000240A168202A00D08DE00029009800D1C4
:1008D0001CE120780025C00637D4284601B0F0BDC1
:1008E000E268B0688006400F47D0306801218F026F
:1008F000002A00D184E00722D202904322690243F9
:1009000032600802316801433160FFF7ABFD0546F4
:100910003068384200D09BE0FFF7A4FD401B02285E
:10092000F6D9032001B0F0BD306801235F041A043A
:10093000914207D005252D04A94272D1990408439C
:10094000306030681043306073E030680121CF05BB
:10095000E2698905002A00D183E008433060FFF78F
:1009600081FD044630683842B7D1FFF77BFD001B9C
:100970000228F7D9032001B0F0BD002A1CD07F2047
:1009800000027168814360690002084370600720BB
:10099000C0023168814320690843306030688004B8
:1009A000400F5C49C1405C4801605C480068FFF74B
:1009B00073FD002800D171E7009801B0F0BD306EE2
:1009C00000295ED0012108433066FFF74BFD054644
:1009D000306E800700D56EE7FFF744FD411B032012
:1009E0000229F5D992E0F06D012905D0052959D1E8
:1009F00004210843F065F06D01210143F1655AE0DF
:100A0000090288433060FFF72DFD05463068384203
:100A100000D143E7FFF726FD411B03200229F5D94A
:100A200074E0904330609804326882433260002959
:100A300050D0FFF717FD05463068384200D02AE74E
:100A4000FFF710FD401B6428F6D9032001B0F0BD6C
:100A50007F20000271688143606900020843706072
:100A60001CE788433060FFF7FDFC044630683842DD
:100A700000D132E7FFF7F6FC011B03200329F5D371
:100A800044E0012188433066FFF7ECFC0546306EF8
:100A9000800700D40FE7FFF7E5FC411B0320022984
:100AA000F5D933E001229043F065F06D04229043C4
:100AB000F06500291CD01A4FFFF7D4FC0546F06DF5
:100AC000800700D505E7FFF7CDFC411B0320B942A5
:100AD000F5D91BE0FFF7C6FC05463068384200D167
:100AE000D9E6FFF7BFFC411B03206429F5D90DE0CF
:100AF0000B4FFFF7B7FC0546F06D800700D4E8E622
:100B0000FFF7B0FC411B0320B942F5D901B0F0BD9D
:100B100000100240006CDC020C00002008000020E5
:100B200088130000401E010E01D0012070470749C4
:100B3000074A5060074803680B400321890759188A
:100B4000016000209060072111607047FFFFFF00E7
:100B500010E000E020ED00E0B0B58421415C012907
:100B600001D10220B0BD0146843124224A600268CE
:100B7000136814680125AC4314606C07A343136029
:100B80000022426610460A7020224A60B0BD7047BB
:100B900070470000F0B583B0054668352A7F012A0A
:100BA00002D1022003B0F0BD06468836242232600E
:100BB00007683A6802923A680124A2433A60072221
:100BC0005206BB6893430B43BB60406E002820462F
:100BD00015D0B8680190B868400F2E49095C2E4ABC
:100BE000105CC000FFF784FA044601980001400F32
:100BF0002849095C284A105CC000FFF779FA288070
:100C00006C8002983860002028772021316003B082
:100C1000F0BDC046F0B583B0054668352A7F012A8D
:100C200002D1022003B0F0BD06468836242232608D
:100C300007683A6802923A680124A2433A600722A0
:100C40005207BB6893430B43BB60406E00282046AD
:100C500015D0B8680190B868400F0E49095C0E4A7B
:100C6000105CC000FFF744FA044601980001400FF1
:100C70000849095C084A105CC000FFF739FA28806F
:100C80006C8002983860002028772021316003B002
:100C9000F0BDC046F8260008F026000870477047EF
:100CA00070470000F0B589B00368DF692025012195
:100CB0000691CE0232462F323A4019680890044617
:100CC000803405939B68202A0495079710D1084625
:100CD0002840012212071A4080181F4616D0089893
:100CE000416F002900D158E10898884709B0F0BD4C
:100CF00030460F3007421F4608D0CF480840069ABA
:100D00001207551C3D40281800D091E0039410268E
:100D10000846304042424241079D28463040444206
:100D2000444114430898C06E401E421E9041204327
:100D300037D001240126B2053A4050425041EA0220
:100D40002246059B00D50246002A00D1A6E02806CF
:100D500006D580200840F2051740C01900D0BDE13B
:100D600040230A461A40504250416A06224600D5A6
:100D70000246002A00D14AE1B2070A4050425041DF
:100D80002A02224600D50246002A00D1B1E10029FC
:100D900000DAB3E1E80100D5B4E1002C00D0FCE0BA
:100DA000B4E1089C5C34059806628068400600D572
:100DB0007BE0618822886088002800D1EDE08A42CB
:100DC00000D1EAE0EFF310800790012383F310884D
:100DD000092045010898374606683468AC433460FA
:100DE000079C84F31088EFF31084079483F3108832
:100DF0000568AE68C84C3440AC60079C84F310882A
:100E0000049C039DEC6000244467C466EFF31084E7
:100E100083F3108803681D68BD431D6084F3108848
:100E200002230367511A89B2FFF7B1FE09B0F0BD82
:100E3000009203940798069B1840424242411802D0
:100E400001910840444244411443059B05D10120CF
:100E50001862039C22690243226101203C460290F1
:100E600004406042604107998A07069A00D502460D
:100E7000002A06D1022018620398016904220A435D
:100E800002616042604107994A07069A5ED4002ACF
:100E9000039C5FD00798000765D46EE030051862A8
:100EA0000898FFF7FCFE09B0F0BD2288039800689F
:100EB0000068436899B2002900D19CE0914200D3B8
:100EC00099E063800068800635D4EFF31082012139
:100ED00081F31088924B20330898056837462E68B6
:100EE0001E402E6082F31088EFF3108281F3108889
:100EF00003689D688D439D6082F31088EFF3108234
:100F000081F3108803689D684026B5439D6082F395
:100F10001088039B049ADA600022C266EFF3108205
:100F200081F3108800680168B943016082F310887A
:100F30001868FFF721F90221089801672188628863
:100F4000891A89B2FFF723FE09B0F0BD0246002AD4
:100F5000039C9FD10420186220690222024322616F
:100F60000798000709D50198049A1040054304D05A
:100F700008201862226902432261029882060199C0
:100F80000A4050425041079A324208D10698002840
:100F9000049A09D0206900280DD109B0F0BD06904F
:100FA00006980028049AF5D11E622069104320613A
:100FB00020690028F1D0079810400DD0114000980A
:100FC00007400F4308D00898416F002904D0089CBF
:100FD000204688472368039C20692822024098689D
:100FE00040210840801829D10898FFF759FE0020B9
:100FF000206109B0F0BD8A42CFD100688006CCD50F
:10100000022208980267FFF7C2FD09B0F0BDEFF3B6
:10101000108186F310880898026814689C43146055
:1010200081F31088002181670399049A8A6000F097
:10103000D9FA09B0F0BDC04620010004EFF31080DA
:10104000029E86F3108809225201089B1C682568BD
:101050009543256080F31088EFF3108086F31088A5
:101060001A6894682C4D2540956080F31088D86EDE
:1010700001280CD1EFF31082029880F310880898B1
:10108000006803681024A343036082F31088039C64
:101090000498E0600020089AD06650671068806865
:1010A000400621D5EFF31082029880F3108808984B
:1010B000006883688B43836082F31088216800296D
:1010C00012D0164888630846FFF78EF8002800D132
:1010D00063E72068816B884709B0F0BD0898816F8D
:1010E000002900D000E658E70898FFF7D9FD09B0BD
:1010F000F0BD0898FFF7D2FD09B0F0BD0026E80169
:1011000000D44AE63446002C00D046E70898FFF7A2
:101110003FFD09B0F0BDC046FEFFFFEFED1800082F
:10112000DFFEFFFFB0B500281ED00446054684351B
:101130006868002804D100202870204600F02AF8B2
:1011400024206860206801680125A9430160A06A25
:10115000002802D0204600F0F7FA204600F0D4FE26
:10116000002803D02846B0BD0120B0BD0920C00230
:1011700021684A6882434A6088682A2290438860CE
:101180000868012202430A60204600F047FB05463A
:101190002846B0BDB0B586B00024059404940394ED
:1011A000029401940068A849884201D006B0B0BDFD
:1011B00013488268012105914B041A4382608268BA
:1011C0001A400092009A02680A43026000680840D0
:1011D000009004940394022002900C200190009847
:1011E0000520000701A9FFF765F81C2528462146C0
:1011F0002246FFF795F92846FFF786F906B0B0BDFD
:1012000034100240F0B587B0059316468C22825800
:10121000202A11D1012700290BD0002E09D0012747
:101220003B0382689A420BD1CA0709D00269002A9F
:1012300006D1384607B0F0BD0227384607B0F0BDEA
:1012400003970193069105465C3501468C310027D2
:101250004F60222202910A60C7660446FFF702F936
:10126000224604906E802E80A068002811D0039939
:101270000907884208D0019988420FD110690028D7
:10128000069B0ED0FF210DE01069002804D03F21FD
:1012900014E01069002810D07F210FE0AF8039469C
:1012A0000DE0CF49A9800028039301D000240394C6
:1012B000002800D1034606930AE0FF21A980039786
:1012C00006E0204018705B1C06936888401E68800A
:1012D000688800281CD00C46059800902021002723
:1012E000104616463A46049B00F06EFF00280ED1C9
:1012F0003068406A069B002B32462146E1D12040EF
:10130000039B18809B1C039300200690DDE70327B6
:10131000202002990860384607B0F0BDF0B581B0D2
:101320008C23C358202B12D1012400290CD0002A71
:101330000AD001231C038568A5420CD1CC070AD032
:101340000469002C07D11C46204601B0F0BD0224E0
:10135000204601B0F0BD0024C46605686D682D020A
:101360000AD5EFF3108583F310889B06066837686B
:101370001F43376085F3108800F088FE204601B0D7
:10138000F0BD000080B50068E649884200D080BD0D
:101390002E4801790D2901D00A294DD1C278002AA1
:1013A00017D0411D00238B544279002A1ED1417968
:1013B000827912025118C2791204037A1B069A1814
:1013C0005118234A914204D18178002901D1012189
:1013D00041700021C170011DD1480122FFF79EFF1D
:1013E00080BD0B1D0A79002A1946E0D01346613BE7
:1013F000DBB2192B01D8203A0A704A78002AD6D0DD
:101400001346613BDBB2192B01D8203A4A708A7827
:10141000002ACCD01346613BDBB2192B01D8203A0D
:101420008A70CA78002AC2D01346613BDBB2192BFE
:10143000D7D8203ACA70D4E7C278082ACBD8831804
:101440005971511CC6E7C0460044004010000020FE
:101450004F464600F0B585B007468820385820280A
:1014600010D1012000290BD0002A09D0012004034B
:10147000BD68A54209D1CD0707D03D69002D04D133
:1014800005B0F0BD022005B0F0BD019302913D46CC
:10149000543539468831002003908860212000911E
:1014A00008601646FEF7DEFF04906E802E80B86856
:1014B000A04202D1386900285ED0029C019E039AA6
:1014C0003968688800285ED0701C454B2ED0002EED
:1014D00049D00392C869000608D4FEF7C3FF0499F7
:1014E000401AB04267D839680868F3E7002C03D087
:1014F00020788862641C07E0039A1088384B1840F3
:101500008862921C039200246888401E6880688864
:101510000028DFD137E0108818408862921C002430
:101520006888401E6880688800282CD0C86900063A
:1015300008D4C869000605D4C869000602D4C86981
:101540000006F3D5002CE6D020788862641CE7E71B
:10155000108818408862921C00246888401E6880A9
:10156000688800280FD0C869000622D5002CEFD06B
:1015700020788862641CF0E70024029A019E396892
:1015800068880028A0D1CA690020520614D4002E11
:101590000FD0721C15D1009BCA6952060DD4CA69BE
:1015A00052060AD4CA69520607D4CA695206F3D54C
:1015B00003E0FEF757FF0320009B2021196005B0D0
:1015C000F0BD0446FEF74EFF0499401AB042F2D82F
:1015D00038680168C0694006F4D52046ECE7C0468B
:1015E000FF0100007047FEE7F0B589B000240894C1
:1015F00007940694059404942D480168042211432D
:101600000160016811400391039901680127394382
:101610000160016839400391039901680226314352
:101620000160006830400390039805200007029095
:101630007D0229462246FEF70DFF1E482946224616
:10164000FEF708FF1C48202101912246FEF702FF09
:1016500006961A4805904120C001049004AE154832
:101660003146FEF727FE07940694059704950298E5
:101670003146FEF71FFE07940694059704950D4822
:101680003146FEF717FE07940694059701980490DB
:1016900009483146FEF70EFE072528462146224618
:1016A000FEF73EFF2846FEF72FFF09B0F0BDC0460B
:1016B00034100240000800500004005000001110D7
:1016C00010B5174800210C22164B0162416281625D
:1016D000E124640218C0016041608160C260016160
:1016E00041610838FFF71EFD002801D0FEF741FDDB
:1016F0000B480021FFF78EFA002801D0FEF739FDD4
:1017000007480021FFF746FA002801D0FEF731FD17
:101710000348FFF721FA002801D0FEF72AFD10BD8B
:101720002000002000440040FEE77047704780B56D
:10173000FEF79CFE80BD00000120C0060149086044
:101740007047C04608ED00E0B0B5816A0A070CD4C6
:10175000CA0714D18A071CD44A0724D4CA062CD439
:101760008A0634D44A063CD44CE00122D2030368F2
:101770005C689443826B22435A60CA07EAD0012214
:10178000520403685C689443C26A22435A608A0721
:10179000E2D50122120403685C689443026B224381
:1017A0005A604A07DAD50122920403685C689443C0
:1017B000426B22435A60CA06D2D501221203036843
:1017C0009C689443C26B22439A608A06CAD5012260
:1017D000520303689C689443026C22439A604A0651
:1017E00010D501221305026854689C43456C2C43B4
:1017F00054609D4206D103235B0554689C43836C6F
:1018000023435360090607D50121C90402685368C0
:101810008B43C06C18435060B0BD0000F0B583B07E
:101820000446064684360025F560FEF71BFE034697
:1018300020680168090721D502952B4800900125F1
:101840006905002220461F4600F0BEFC002812D089
:10185000EFF3108085F3108821680A6880239A438B
:101860000A6080F31088032020228821029D6250A4
:10187000357003B0F0BD20683B46029D006840070C
:1018800026D5194800900127B9050022204600F00E
:101890009BFC00281CD0EFF3108087F310880921EF
:1018A0004901226813688B43136080F31088EFF3BB
:1018B000108087F3108821688A68BA438A6080F3B1
:1018C0001088032020228C216250357003B0F0BDB7
:1018D00020207060B060E56670212A46284662507C
:1018E000357003B0F0BDC046FFFFFF0180B5806AD0
:1018F0005E2100224252FFF7D3F980BDF0B581B0DE
:101900008C2141580268222910D101465C318B8814
:10191000526A1A40836D1A804A88521E4A809A1C65
:1019200082654A88002A07D001B0F0BD906908217D
:101930000143916101B0F0BD03468C33EFF3108495
:10194000012282F3108809256D0106683768AF43CC
:10195000376084F31088EFF3108482F310880568F1
:10196000AE689643AE6084F3108820241C60002388
:10197000036743670468646824020AD5EFF31084A0
:1019800082F31088950606683768AF43376084F3A2
:101990001088C46E012C15D1C366EFF3108382F357
:1019A00010880468256810229543256083F3108809
:1019B0000368DC69E40600D51A620988FFF7E7F8D6
:1019C00001B0F0BDFFF7DEFC01B0F0BDF0B583B0B3
:1019D00004460268D569116890688C23E358222B6D
:1019E00064D126465C3601220192B289002A00D1D8
:1019F0000AE127468C37B2880292019A1040C90545
:101A00005AD4002822D103E07088002800D1B6E023
:101A1000A80600D4F8E02068416A029A1140A26D3D
:101A200011807188491E7180911CA165C569680784
:101A3000EAD078680028E7D02046FFF731F9002087
:101A40007860E1E77088002800D198E0A80600D40B
:101A5000DAE02068416A029A1140A26D1180718813
:101A6000491E7180911CA165C5696907EAD0AA0762
:101A700005D400290BD47868002811D1E2E70222AE
:101A800002627A68042313437B600029F3D50421A2
:101A90000162786802210143796078680028D1D01A
:101AA0002046FFF7FDF800207860CBE79069082119
:101AB0000143916103B0F0BD002827D102E0708896
:101AC00000285CD0A80600D49EE02068416A029AF3
:101AD0001140A26D11807188491E7180911CA16511
:101AE000C5696907EBD0E90704D0019901627868FC
:101AF0000843786078680028E1D02046FFF7D0F8E6
:101B000000207860DBE77088002838D0A80600D471
:101B10007AE02068416A029A1140A26D11807188B2
:101B2000491E7180911CA165C5696907EBD0EA0760
:101B300007D1AA070CD4002912D47868002818D13C
:101B4000E1E7019B03627A681A437A60AA07F2D53B
:101B5000022202627A68042313437B600029ECD5D9
:101B600004210162786802210143796078680028C5
:101B7000C9D02046FFF794F800207860C3E7EFF360
:101B80001080019D85F310882902226813688B4319
:101B9000136080F31088EFF3108085F310882168BC
:101BA0008A68D84B13408B6080F3108820203860FF
:101BB0000020206760672168496809020BD5EFF3B0
:101BC0001081019A82F31088920623681D6895435C
:101BD0001D6081F31088E16E012937D1E066EFF3D3
:101BE0001081019880F310882268136810208343C5
:101BF000136081F310882168CA69D20600D5086293
:101C000031882046FEF7C3FF7088002824D0B189B0
:101C1000884221D2EFF31080019D85F31088B949E5
:101C2000491C226893680B40936080F310880B482E
:101C30006067EFF3108085F3108821680A6820231D
:101C400013430B6080F3108803B0F0BD2046FFF70C
:101C500099FB70880028DAD103B0F0BDFD180008A8
:101C6000F0B581B08C2141580268222911D101467A
:101C70005C318B88526A1A40836D1A704A88521EF2
:101C80004A80826D521C82654A88002A07D001B0C2
:101C9000F0BD906908210143916101B0F0BD034698
:101CA0008C33EFF31084012282F3108809256D0133
:101CB00006683768AF43376084F31088EFF3108409
:101CC00082F310880568AE689643AE6084F310888E
:101CD00020241C60002303674367046864682402AF
:101CE0000AD5EFF3108482F31088950606683768EA
:101CF000AF43376084F31088C46E012C15D1C366DE
:101D0000EFF3108382F3108804682568102295434E
:101D1000256083F310880368DC69E40600D51A6245
:101D20000988FEF734FF01B0F0BDFFF72BFB01B0CF
:101D3000F0BD0000F0B585B004460068C5690168D3
:101D4000019187688C216158222964D122465C3236
:101D50009089002800D1A9E026468C369088029010
:101D60000120074004900002019901400191039273
:101D700002E05088002854D0A80600D496E02068DD
:101D8000406A02990840A16D08705088401E50803A
:101D9000A06D401CA0652068C5696907E9D0019B5A
:101DA0005A425A41EB07049B00D01346002B04D142
:101DB000012202627368134373607A427A41AB076F
:101DC000049B00D51346002B05D1022202627268E3
:101DD0000423134373607A427A410029049906D49C
:101DE000002907D070680028039A0DD1C1E7114679
:101DF0000029F7D10421016270680221014371605A
:101E000070680028039AB4D02046FEF749FF039A71
:101E100000207060ADE7816908220A43826105B045
:101E2000F0BDEFF31081012080F3108802022368D7
:101E30001D6895431D6081F31088EFF3108180F3D6
:101E40001088226893682F4D1D40956081F310889B
:101E500020213160002121676167226852681202E7
:101E60000AD5EFF3108280F31088830625682E6868
:101E70009E432E6082F31088E26E012A38D1E1661B
:101E8000EFF3108180F310882268136810208343D9
:101E9000136081F310882168CA69D20600D50862F0
:101EA000039D29882046FEF772FE2A4650880028A6
:101EB00025D09189884222D2EFF31080012181F34D
:101EC0001088104A521C23689D6815409D6080F35D
:101ED0001088BB486067EFF3108081F31088216899
:101EE0000A68202313430B6080F3108805B0F0BD0F
:101EF0002046FFF747FA039A50880028D9D105B049
:101F0000F0BDC046FEFFFFEFF0B581B004460068AB
:101F10000168514A0A40A16823690B4365691D4362
:101F20001543E1690D43056003221203436893439F
:101F3000E2681A434260A269236A13438268474DEC
:101F400015401D438560C26A0F239A43676A3A436E
:101F5000C262434A904209D0424A904208D1424864
:101F6000406D8007000F41A2125802E0002200E0FD
:101F70001022264668360125E803814210D1082A3E
:101F800061D8C0467A44127952009744045C195CC7
:101F90002B5C5C5C3000FEF7E7FB002826D151E0AB
:101FA000082A50D87A44127952009744044C124CB3
:101FB000354C4C4C3A00FEF7D7FB002830D141E0BD
:101FC000294800680006400F411C2C48FEF790F895
:101FD0000DE0254800680006400F411C2748FEF729
:101FE00087F81EE0FEF70AFC00282BD0676A79000C
:101FF000234A515AFEF77CF8400061684A081018DD
:10200000FEF776F80246103A1E498A421BD201407A
:102010000007400F084313E0FEF7F0FB002811D043
:10202000676A7900164A515AFEF762F861684A08F1
:102030001018FEF75DF801461039124A914202D29B
:102040002168C86000251048306000206067A067E4
:10205000284601B0F0BDC046F369FFCFFFF4FF1181
:102060000044004000380140001002400000000021
:10207000040000000200000008000000006CDC0208
:10208000D8260008F0FF000001000100F0B55C2335
:10209000C25281650021416703465C335A808568DE
:1020A00004468C34002D12D001263707BD4208D0DB
:1020B0003603B54214D10569002D0ED13D4D9D80EA
:1020C0000FE00569002D05D03F259D8009E00569D9
:1020D000002D02D07F259D8003E0FF259D8000E03C
:1020E0009980616022212160EFF31084012181F346
:1020F00010880568AE680E43AE6084F310880C0348
:102100004D07466EAE4202D19B899A421BD20269AC
:102110008368A34204D1002A1ED0294A426703E003
:10212000274B4367002A19D0EFF3108281F3108800
:102130000902006803680B4320211943016082F300
:1021400010880020F0BD02698368A34213D1002AE1
:1021500021D0194A426712E01A4A4267EFF310820F
:1021600081F310880068016820230B43036082F329
:1021700010880020F0BD104B4367002A0DD0EFF30C
:10218000108281F310880B02046825681D432560C6
:1021900082F3108801E0094A4267EFF3108281F36D
:1021A00010880907006883680B43836082F31088F6
:1021B0000020F0BDFF010000351D0008CD1900080A
:1021C000611C0008FD180008F0B585B01F461546D3
:1021D0000E460368D9693140891B4A424A410021B1
:1021E000954222D10A9C002C22D00391611C24D15B
:1021F000D9693140891B4A424A41954231D1D96956
:102200003140891B4A424A4195422AD1D96931401D
:10221000891B4A424A41954223D1D9693140891BE1
:102220004A424A419542E3D01BE0084605B0F0BD62
:10223000FEF718F9032005B0F0BD402E049001D040
:10224000802E14D1FEF70EF9C01BA0420CD80498C2
:1022500000680168C0693040801B414241418D42A5
:10226000F0D0039805B0F0BD032005B0F0BD843078
:10227000019001200090C002029006E0C869304041
:10228000801B414241418D42EBD1FEF7EBF8C11B6F
:102290000320A1423FD8049909680A685207EDD586
:1022A000CA69120739D4CA69029B1A42E6D0029A57
:1022B0000A62EFF31082012181F3108809235B0188
:1022C000049C246825689D43256082F31088EFF301
:1022D000108281F31088049B1B689C682A4D25405E
:1022E0009D60049B82F31088DA6E012A0BD1EFF314
:1022F000108281F3108819680B681024A3430B60C7
:10230000049B82F310882021019CA1600022DA66E0
:102310005A672270E16005B0F0BD08250D62EFF349
:102320001081009880F3108809225201049B1B68D9
:102330001C6894431C6081F31088EFF3108180F3D4
:102340001088049A126893680F4C1C40049B946098
:1023500081F31088D96E01290CD1EFF3108101228D
:1023600082F310881A6813681024A3431360049B37
:1023700081F310882021019A91600021D966596764
:102380001170D56005B0F0BDFEFFFFEF80B58D4840
:10239000FEF788FC80BDC04680B582B00190002069
:1023A000C343884801A90122FFF754F8019802B0FD
:1023B00080BDC04696B0FEF763F8002415941494CF
:1023C00013941294119410940F940E940D940C94F1
:1023D0000B940A940994704A106801210843062559
:1023E000A84310608E05159610270E970EA8FEF7CD
:1023F0003DFA002801D072B6FEE70D940C940B94C0
:10240000022005900A9007200490099009A8012154
:102410000691FEF7BDF8002801D072B6FEE70296DD
:102420000395FFF7E1F8FFF74BF95CA000F014F912
:10243000634E311D6348069D2A46FEF76FFFB47058
:102440006802089005200007079001972F46009426
:102450005E480899FDF7F6FF7D208000FDF702FF3A
:1024600058480068C069800629D5F078771D39186A
:10247000012554482A462B46FEF7C4FEF078395C05
:102480000D2901D00A2914D13C547079B17909027F
:102490000818F1790904327A1206511808184C49C3
:1024A0008842204609D14B4800F0D6F87570204686
:1024B00003E00828069F02D8401CF070069F707841
:1024C00000285ED0B7700020707043A000F0C4F800
:1024D0006420FDF7C7FE3D483446089E31463A4623
:1024E000FDF7B8FF00250798314626462A46FDF736
:1024F000B1FF202134482A46FDF7ACFF4348444948
:102500000160257028463946FEF726F81595149582
:1025100013951295119510950F950E950D950C9597
:102520000B950A9509951C4908683843039A90430E
:1025300008600298159001980E900EA8FEF796F983
:10254000002824D10D950C950B9505980A900498B8
:10255000099009A80121FEF71BF80028009C18D15A
:102560002021012718483A46FDF774FF079808997B
:102570003A46FDF76FFF27A000F06EF8B570069F92
:1025800066E7B0780128A0D00028FBD160E772B6DA
:10259000FEE772B6FEE7C04600200240536973743E
:1025A000656D6120696E69636961646F2E2044699D
:1025B00073706C6179204C494741444F2E0D0000E7
:1025C00010000020200000200004005000080050EF
:1025D0004F46460000270008456E7472616E646FB6
:1025E00020656D206D6F646F2053746F702E2054C2
:1025F0006F717565206E612074656C612070617209
:10260000612061636F726461722E0D00187000406A
:10261000010001000D0A53697374656D61206163E7
:102620006F72646F7520646F206D6F646F205374D8
:102630006F70210D0000000002E008C8121F08C1E1
:10264000002AFAD170477047002001E001C1121F33
:10265000002AFBD17047000010B5044601E0FFF7E7
:102660009BFE2078641C03490028F8D10A20FFF75C
:1026700093FE10BD000000200000000000000000DC
:10268000000000000000000000000000000000004A
:102690000000000000000000010000000200000037
:1026A0000300000004000000060000000700000016
:1026B0000800000009000000000000000000000009
:1026C0000000000000000000010000000200000007
:1026D00003000000040000000100020004000600E6
:1026E00008000A000C0010002000400080000001DB
:1026F00001010103070100000804020408010101AF
:10270000436F6D616E646F20274F464627207265C8
:1027100063656269646F2E20456E7472616E646FCA
:1027200020656D206D6F646F2053746F702E2E2E98
:102730000D004F464600000058270008000000200A
:10274000100000003826000868270008100000204C
:10275000A804000048260008000000000100000056
:0827600004000000001BB7009B
:04000005080000C12E
:00000001FF
